:020000040800F2
:1000000000C0002051680008E1660008E3660008AF
:10001000E5660008E7660008E966000800000000E1
:10002000000000000000000000000000EB66000877
:10003000ED66000800000000EF660008F1660008A9
:10004000996800089968000899680008996800088C
:100050009968000899680008FD66000809670008AB
:10006000156700082167000835670008E1420008AD
:10007000996800089968000899680008996800085C
:10008000996800089968000899680008996800084C
:100090009968000899680008996800084167000895
:1000A000996800089968000899680008996800082C
:1000B00099680008E94F0008A164000899680008E1
:1000C000996800089968000899680008996800080C
:1000D00099680008996800089968000899680008FC
:1000E000BD670008996800089968000899680008C9
:1000F00099680008996800089968000899680008DC
:1001000099680008996800089968000899680008CB
:1001100099680008996800089968000899680008BB
:1001200099680008996800089968000899680008AB
:1001300000000000000000000000000000000000BF
:1001400000000000000000000000000000000000AF
:10015000000000000000000000000000000000009F
:10016000000000000000000000000000000000008F
:10017000000000000000000000000000000000007F
:10018000000000000000000000000000000000006F
:10019000000000000000000000000000000000005F
:1001A000000000000000000000000000000000004F
:1001B000000000000000000000000000000000003F
:1001C000000000000000000000000000000000002F
:1001D000000000000000000000000000000000001F
:0401E0005FF8E0F1F3
:1001E80010B5054C237833B9044B13B10448AFF369
:1001F80000800123237010BD680400200000000067
:10020800BC7B000808B5034B1BB103490348AFF397
:10021800008008BD000000006C040020BC7B0008C2
:10022800034613F8012B002AFBD1181A013870472E
:1002380081F0004102E000BF83F0004330B54FEA8F
:1002480041044FEA430594EA050F08BF90EA020FFC
:100258001FBF54EA000C55EA020C7FEA645C7FEA8F
:10026800655C00F0E2804FEA5454D4EB5555B8BFB2
:100278006D420CDD2C4480EA020281EA030382EA23
:10028800000083EA010180EA020281EA0303362DB5
:1002980088BF30BD11F0004F4FEA01314FF4801C88
:1002A8004CEA113102D0404261EB410113F0004F9A
:1002B8004FEA03334CEA133302D0524263EB430351
:1002C80094EA050F00F0A780A4F10104D5F1200EEF
:1002D8000DDB02FA0EFC22FA05F2801841F100014A
:1002E80003FA0EF2801843FA05F359410EE0A5F11E
:1002F80020050EF1200E012A03FA0EFC28BF4CF04F
:10030800020C43FA05F3C01851EBE37101F0004504
:1003180007D54FF0000EDCF1000C7EEB00006EEB11
:100328000101B1F5801F1BD3B1F5001F0CD349089B
:100338005FEA30004FEA3C0C04F101044FEA4452F2
:1003480012F5800F80F09A80BCF1004F08BF5FEA79
:10035800500C50F1000041EB045141EA050130BD59
:100368005FEA4C0C404141EB010111F4801FA4F1FC
:100378000104E9D191F0000F04BF01460020B1FA51
:1003880081F308BF2033A3F10B03B3F120020CDA89
:100398000C3208DD02F1140CC2F10C0201FA0CF067
:1003A80021FA02F10CE002F11402D8BFC2F1200CCC
:1003B80001FA02F120FA0CFCDCBF41EA0C01904082
:1003C800E41AA2BF01EB0451294330BD6FEA0404CB
:1003D8001F3C1CDA0C340EDC04F11404C4F12002B6
:1003E80020FA04F001FA02F340EA030021FA04F3C8
:1003F80045EA030130BDC4F10C04C4F1200220FA1F
:1004080002F001FA04F340EA0300294630BD21FA5C
:1004180004F0294630BD94F0000F83F4801306BF22
:1004280081F480110134013D4EE77FEA645C18BF16
:100438007FEA655C29D094EA050F08BF90EA020FAD
:1004480005D054EA000C04BF1946104630BD91EAA5
:10045800030F1EBF0021002030BD5FEA545C05D1A8
:100468004000494128BF41F0004130BD14F58004E7
:100478003CBF01F5801130BD01F0004545F0FE415B
:1004880041F470014FF0000030BD7FEA645C1ABF90
:10049800194610467FEA655C1CBF0B46024650EAC7
:1004A800013406BF52EA033591EA030F41F40021F3
:1004B80030BD00BF90F0000F04BF0021704730B579
:1004C8004FF4806404F132044FF000054FF000014E
:1004D80050E700BF90F0000F04BF0021704730B50F
:1004E8004FF4806404F1320410F0004548BF4042E4
:1004F8004FF000013EE700BF42004FEAE2014FEA39
:1005080031014FEA02701FBF12F07F4393F07F4F13
:1005180081F06051704732F07F4208BF704793F016
:100528007F4F04BF41F40021704730B54FF4607429
:1005380001F0004521F000411CE700BF50EA01022C
:1005480008BF704730B54FF000050AE050EA0102D5
:1005580008BF704730B511F0004502D5404261EB45
:1005680041014FF4806404F132045FEA915C3FF486
:10057800D8AE4FF003025FEADC0C18BF03325FEA23
:10058800DC0C18BF033202EBDC02C2F1200300FAD4
:1005980003FC20FA02F001FA03FE40EA0E0021FAF9
:1005A80002F11444BDE600BF70B54FF0FF0C4CF4E7
:1005B800E06C1CEA11541DBF1CEA135594EA0C0F99
:1005C80095EA0C0F00F0DEF82C4481EA030621EAD4
:1005D8004C5123EA4C5350EA013518BF52EA03350F
:1005E80041F4801143F4801338D0A0FB02CE4FF0C1
:1005F8000005E1FB02E506F00042E0FB03E54FF0F1
:100608000006E1FB03569CF0000F18BF4EF0010EE8
:10061800A4F1FF04B6F5007F64F5407404D25FEAE4
:100628004E0E6D4146EB060642EAC62141EA555197
:100638004FEAC52040EA5E504FEACE2EB4F1FD0CD9
:1006480088BFBCF5E06F1ED8BEF1004F08BF5FEA57
:10065800500E50F1000041EB045170BD06F0004609
:1006680046EA010140EA020081EA0301B4EB5C04B6
:10067800C2BFD4EB0C0541EA045170BD41F48011AE
:100688004FF0000E013C00F3AB8014F1360FDEBFD3
:10069800002001F0004170BDC4F10004203C35DAAF
:1006A8000C341BDC04F11404C4F1200500FA05F332
:1006B80020FA04F001FA05F240EA020001F00042D3
:1006C80021F0004110EBD37021FA04F642EB060149
:1006D8005EEA430E08BF20EAD37070BDC4F10C0473
:1006E800C4F1200500FA04F320FA05F001FA04F237
:1006F80040EA020001F0004110EBD37041F1000123
:100708005EEA430E08BF20EAD37070BDC4F120052D
:1007180000FA05F24EEA020E20FA04F301FA05F295
:1007280043EA020321FA04F001F0004121FA04F23D
:1007380020EA020000EBD3705EEA430E08BF20EA0D
:10074800D37070BD94F0000F0FD101F00046400047
:1007580041EB010111F4801F08BF013CF7D041EAC9
:10076800060195F0000F18BF704703F000465200CD
:1007780043EB030313F4801F08BF013DF7D043EA9E
:100788000603704794EA0C0F0CEA135518BF95EA54
:100798000C0F0CD050EA410618BF52EA4306D1D1DB
:1007A80081EA030101F000414FF0000070BD50EAFA
:1007B800410606BF1046194652EA430619D094EA84
:1007C8000C0F02D150EA013613D195EA0C0F05D16E
:1007D80052EA03361CBF104619460AD181EA0301C2
:1007E80001F0004141F0FE4141F470014FF000007A
:1007F80070BD41F0FE4141F4780170BD70B54FF015
:10080800FF0C4CF4E06C1CEA11541DBF1CEA135594
:1008180094EA0C0F95EA0C0F00F0A7F8A4EB050476
:1008280081EA030E52EA03354FEA013100F088806D
:100838004FEA03334FF0805545EA131343EA126336
:100848004FEA022245EA111545EA10654FEA0026EB
:100858000EF000419D4208BF964244F1FD0404F5A4
:10086800407402D25B084FEA3202B61A65EB030500
:100878005B084FEA32024FF480104FF4002CB6EBBD
:10088800020E75EB030E22BFB61A754640EA0C003D
:100898005B084FEA3202B6EB020E75EB030E22BF7D
:1008A800B61A754640EA5C005B084FEA3202B6EBBE
:1008B800020E75EB030E22BFB61A754640EA9C007D
:1008C8005B084FEA3202B6EB020E75EB030E22BF4D
:1008D800B61A754640EADC0055EA060E18D04FEA0B
:1008E800051545EA16754FEA06164FEAC30343EAAB
:1008F80052734FEAC2025FEA1C1CC0D111F4801F78
:100908000BD141EA00014FF000004FF0004CB6E770
:1009180011F4801F04BF01430020B4F1FD0C88BF0F
:10092800BCF5E06F3FF6AFAEB5EB030C04BFB6EB1A
:10093800020C5FEA500C50F1000041EB045170BD0D
:100948000EF0004E4EEA113114EB5C04C2BFD4EB3A
:100958000C0541EA045170BD41F480114FF0000EBE
:10096800013C90E645EA060E8DE60CEA135594EA3A
:100978000C0F08BF95EA0C0F3FF43BAF94EA0C0F3D
:100988000AD150EA01347FF434AF95EA0C0F7FF4B2
:1009980025AF104619462CE795EA0C0F06D152EA06
:1009A80003353FF4FDAE1046194622E750EA4106EA
:1009B80018BF52EA43067FF4C5AE50EA41047FF4FB
:1009C8000DAF52EA43057FF4EBAE12E74FF0FF3C60
:1009D80006E000BF4FF0010C02E000BF4FF0010C31
:1009E8004DF804CD4FEA410C7FEA6C5C4FEA430CAA
:1009F80018BF7FEA6C5C1BD001B050EA410C0CBFF9
:100A080052EA430C91EA030F02BF90EA020F00205A
:100A1800704710F1000F91EA030F58BF994208BFC1
:100A280090422CBFD8176FEAE37040F0010070477E
:100A38004FEA410C7FEA6C5C02D150EA013C07D1D5
:100A48004FEA430C7FEA6C5CD6D152EA033CD3D020
:100A58005DF8040B704700BF8446104662468C461A
:100A68001946634600E000BF01B5FFF7B7FF00284D
:100A780048BF10F1000F01BD4DF808EDFFF7F4FF76
:100A88000CBF012000205DF808FB00BF4DF808ED01
:100A9800FFF7EAFF34BF012000205DF808FB00BF24
:100AA8004DF808EDFFF7E0FF94BF012000205DF846
:100AB80008FB00BF4DF808EDFFF7CEFF94BF0120FB
:100AC80000205DF808FB00BF4DF808EDFFF7C4FFF4
:100AD80034BF012000205DF808FB00BF4FEA410247
:100AE80012F5001215D211D56FF47873B3EB625278
:100AF80012D94FEAC12343F0004343EA505311F09F
:100B0800004F23FA02F018BF404270474FF0000030
:100B1800704750EA013005D111F0004008BF6FF06E
:100B2800004070474FF00000704700BF4FEA410295
:100B3800B2F1E04324BFB3F5001CDCF1FE5C0DD933
:100B480001F0004C4FEAC0024CEA5070B2F1004F7D
:100B580040EB830008BF20F00100704711F0804F80
:100B680021D113F13872BCBF01F00040704741F445
:100B780080114FEA5252C2F11802C2F1200C10FA49
:100B88000CF320FA02F018BF40F001004FEAC1232D
:100B98004FEAD32303FA0CFC40EA0C0023FA02F3D1
:100BA8004FEA4303CCE77FEA625307D150EA0133A7
:100BB8001EBF4FF0FE4040F44000704701F0004077
:100BC80040F0FE4040F40000704700BF80F0004055
:100BD80002E000BF81F0004142001FBF5FEA41030D
:100BE80092EA030F7FEA226C7FEA236C6AD04FEA0D
:100BF8001262D2EB1363C1BFD21841404840414052
:100C0800B8BF5B42192B88BF704710F0004F40F403
:100C1800000020F07F4018BF404211F0004F41F41F
:100C2800000121F07F4118BF494292EA030F3FD0EB
:100C3800A2F1010241FA03FC10EB0C00C3F12003FE
:100C480001FA03F100F0004302D5494260EB40008D
:100C5800B0F5000F13D3B0F1807F06D340084FEAF8
:100C6800310102F10102FE2A51D2B1F1004F40EBED
:100C7800C25008BF20F0010040EA03007047490055
:100C880040EB000010F4000FA2F10102EDD1B0FA20
:100C980080FCACF1080CB2EB0C0200FA0CF0AABF15
:100CA80000EBC25052421843BCBFD04018437047B3
:100CB80092F0000F81F4000106BF80F400000132B9
:100CC800013BB5E74FEA41037FEA226C18BF7FEA90
:100CD800236C21D092EA030F04D092F0000F08BFD2
:100CE8000846704790EA010F1CBF0020704712F0B9
:100CF8007F4F04D1400028BF40F00040704712F1F8
:100D080000723CBF00F50000704700F0004343F05C
:100D1800FE4040F4000070477FEA226216BF084692
:100D28007FEA23630146420206BF5FEA412390EA55
:100D3800010F40F4800070474FF0000304E000BF4B
:100D480010F0004348BF40425FEA000C08BF7047FC
:100D580043F0964301464FF000001CE050EA0102C0
:100D680008BF70474FF000030AE000BF50EA0102D5
:100D780008BF704711F0004302D5404261EB4101C2
:100D88005FEA010C02BF84460146002043F0B643E7
:100D980008BFA3F18053A3F50003BCFA8CF2083A0C
:100DA800A3EBC25310DB01FA02FC634400FA02FC15
:100DB800C2F12002BCF1004F20FA02F243EB02001C
:100DC80008BF20F00100704702F1200201FA02FC7E
:100DD800C2F1200250EA4C0021FA02F243EB020071
:100DE80008BF20EADC7070474FF0FF0C1CEAD052B5
:100DF8001EBF1CEAD15392EA0C0F93EA0C0F6FD076
:100E08001A4480EA010C400218BF5FEA41211ED053
:100E18004FF0006343EA501043EA5111A0FB01313F
:100E28000CF00040B1F5000F3EBF490041EAD37114
:100E38005B0040EA010062F17F02FD2A1DD8B3F190
:100E4800004F40EBC25008BF20F00100704790F0FF
:100E5800000F0CF0004C08BF49024CEA502040EA51
:100E680051207F3AC2BFD2F1FF0340EAC250704717
:100E780040F400004FF00003013A5DDC12F1190F55
:100E8800DCBF00F000407047C2F10002410021FAC7
:100E980002F1C2F1200200FA02FC5FEA310040F1DF
:100EA800000053EA4C0308BF20EADC70704792F058
:100EB800000F00F0004C02BF400010F4000F013A90
:100EC800F9D040EA0C0093F0000F01F0004C02BF8B
:100ED800490011F4000F013BF9D041EA0C018FE7FA
:100EE8000CEAD15392EA0C0F18BF93EA0C0F0AD000
:100EF80030F0004C18BF31F0004CD8D180EA010026
:100F080000F00040704790F0000F17BF90F0004FBE
:100F1800084691F0000F91F0004F14D092EA0C0FA0
:100F280001D142020FD193EA0C0F03D14B0218BF33
:100F3800084608D180EA010000F0004040F0FE4079
:100F480040F40000704740F0FE4040F44000704715
:100F58004FF0FF0C1CEAD0521EBF1CEAD15392EA94
:100F68000C0F93EA0C0F69D0A2EB030280EA010C84
:100F780049024FEA402037D04FF0805343EA11111D
:100F880043EA10130CF000408B4238BF5B0042F17B
:100F98007D024FF4000C8B4224BF5B1A40EA0C0020
:100FA800B3EB510F24BFA3EB510340EA5C00B3EB52
:100FB800910F24BFA3EB910340EA9C00B3EBD10F40
:100FC80024BFA3EBD10340EADC001B0118BF5FEA92
:100FD8001C1CE0D1FD2A3FF650AF8B4240EBC250BB
:100FE80008BF20F0010070470CF0004C4CEA50207C
:100FF8007F32C2BFD2F1FF0340EAC250704740F4CB
:1010080000004FF00003013A37E792F0000F00F0BC
:10101800004C02BF400010F4000F013AF9D040EA3A
:101028000C0093F0000F01F0004C02BF490011F4CE
:10103800000F013BF9D041EA0C0195E70CEAD153C6
:1010480092EA0C0F08D142027FF47DAF93EA0C0FAD
:101058007FF470AF084676E793EA0C0F04D14B0291
:101068003FF44CAF08466EE730F0004C18BF31F043
:10107800004CCAD130F000427FF45CAF31F000433D
:101088007FF43CAF5FE700BF4FF0FF3C06E000BFD6
:101098004FF0010C02E000BF4FF0010C4DF804CDF9
:1010A8004FEA40024FEA41037FEA226C18BF7FEA09
:1010B800236C11D001B052EA530C18BF90EA010F0B
:1010C80058BFB2EB030088BFC81738BF6FEAE1709A
:1010D80018BF40F0010070477FEA226C02D15FEA36
:1010E800402C05D17FEA236CE4D15FEA412CE1D0A2
:1010F8005DF8040B704700BF844608466146FFE769
:101108000FB5FFF7C9FF002848BF10F1000F0FBD4A
:101118004DF808EDFFF7F4FF0CBF012000205DF843
:1011280008FB00BF4DF808EDFFF7EAFF34BF0120C8
:1011380000205DF808FB00BF4DF808EDFFF7E0FF61
:1011480094BF012000205DF808FB00BF4DF808EDB2
:10115800FFF7D2FF94BF012000205DF808FB00BF15
:101168004DF808EDFFF7C8FF34BF012000205DF8F7
:1011780008FB00BF4FEA4002B2F1FE4F0FD34FF019
:101188009E03B3EB12620DD94FEA002343F00043EC
:1011980010F0004F23FA02F018BF404270474FF09A
:1011A8000000704712F1610F01D1420205D110F021
:1011B800004008BF6FF0004070474FF000007047D4
:1011C8007BB972B90029BEBF00204FF0004106E08C
:1011D80008BF00281CBF6FF000414FF0FF3000F03F
:1011E800A7B9ADF1080C6DE904CE002909DB002B85
:1011F8001ADB00F035F8DDF804E0DDE9022304B07D
:101208007047404261EB4101002B1BDB00F028F8DE
:10121800DDF804E0DDE9022304B0404261EB41015E
:10122800524263EB43037047524263EB430300F0BF
:1012380017F8DDF804E0DDE9022304B0404261EB71
:1012480041017047524263EB430300F009F8DDF8AF
:1012580004E0DDE9022304B0524263EB4303704724
:101268002DE9F0478C460446089E002B4BD18A4254
:10127800154667D9B2FA82F24AB1C2F1200701FADB
:1012880002F320FA07F7954047EA030C94404FEA27
:10129800154EBCFBFEF71FFA85F80EFB17C307FBBC
:1012A80008F9210C41EA0343994509D9EB1807F1DC
:1012B800FF3180F01C81994540F21981023F2B448F
:1012C800A3EB0903B3FBFEF00EFB103300FB08F1A0
:1012D800A4B244EA0344A14209D92C1900F1FF330E
:1012E80080F00781A14240F2048102382C4440EA90
:1012F80007400027641A1EB10023D440C6E9004302
:101308003946BDE8F0878B4209D9002E00F0EC8001
:101318000027C6E9000138463946BDE8F087B3FA28
:1013280083F7002F48D18B4202D3824200F2FB8020
:10133800841A61EB030301209C46002EE0D0C6E925
:10134800004CDDE702B9FFDEB2FA82F2002A40F073
:101358008F800127491B4FEA15481FFA85F9B1FB11
:10136800F8FE08FB1E1109FB0EF04FEA144C4CEA7C
:101378000143984207D9EB180EF1FF3102D2984287
:1013880000F2CD808E461B1AB3FBF8F008FB103331
:1013980009FB00F9A4B244EA0344A14507D92C1972
:1013A80000F1FF3302D2A14500F2B6801846A4EB43
:1013B800090440EA0E409EE7C7F12005BB4022FA27
:1013C80005FC4CEA030C21FA05F44FEA1C4EB4FB69
:1013D800FEF91FFA8CF80EFB194420FA05F3B94000
:1013E80009FB08FA19430B0C43EA0444A24502FA24
:1013F80007F200FA07F30BD91CEB040409F1FF30DC
:1014080080F08880A24540F28580A9F102096444F1
:10141800A4EB0A04B4FBFEF00EFB104400FB08FA30
:1014280089B241EA0444A24508D91CEB040400F13E
:10143800FF316BD2A24569D90238644440EA0940B9
:10144800A0FB0289A4EB0A044C454146CE4654D37E
:1014580051D0002E69D05A1A64EB0E0404FA05F52F
:1014680022FA07F3FC401D43C6E90054002747E76A
:101478009540C2F1200321FA03F04FEA1548B0FB6A
:10148800F8F71FFA85F908FB170024FA03F39140CF
:1014980007FB09FC0B43190C41EA00418C4504FA8F
:1014A80002F407D9691807F1FF3031D28C452FD9DA
:1014B800023F2944A1EB0C01B1FBF8F008FB101C1A
:1014C80000FB09FE99B241EA0C418E4507D969181B
:1014D80000F1FF3318D28E4516D902382944A1EB02
:1014E8000E0140EA07473AE73746304608E70F4615
:1014F800E6E61846FBE64345ABD2B8EB020169EBDA
:101508000C0201389646A4E71846E8E7084695E72E
:101518000746CFE781467BE702382C4447E7AEF120
:10152800020E2B442FE7384607E73746E8E600BFA8
:10153800704700BF044B0022DA61044A136943F084
:10154800010313610180704750050020002002400C
:101558001A4BDB6813F0100F27D0194AD36943F0F0
:101568000203D3611023154AD26812F0040F06D083
:101578001349CA6942F00102CA6143F004030F4AE1
:10158800D26912F0010F09D00D49CA6942F004026C
:10159800CA610A49CA6922F00102CA6140F201120D
:1015A800934204D0054AD36070470023DBE7034A1F
:1015B800D36923F00103D361704700BF00200240C4
:1015C80050050020074B1B6913F0800F07D0054B0F
:1015D800054A5A6002F188325A600020704701209B
:1015E800704700BF0020024023016745034A136982
:1015F80043F0800313610020704700BF00200240C1
:1016080038B5044601F068F90546174BDB6813F056
:10161800010F0AD0B4F1FF3FF7D00CB301F05CF929
:10162800401BA042F1D9032019E00F4BDB6813F0EF
:10163800200F02D00C4B2022DA600B4BDB6813F032
:10164800100F09D1084BDB6913F0010F04D1064BC9
:10165800DB6813F0040F05D0FFF77AFF012038BDCF
:101668000320FCE70020FAE7002002402DE9F843B8
:10167800234C247E012C41D01E4690460F4604463A
:101688001F4B01221A764CF25030FFF7B9FF034680
:1016980070BB012C29D0022C24D04FF0040900245F
:1016A8004C4525D22101C1F12002A1F1200328FADD
:1016B80001F106FA02F2114326FA03F3194389B23B
:1016C80007EB4400FFF736FF4CF25030FFF798FF66
:1016D8000C4B1D6925F001051D61034640B9013415
:1016E800E4B2DDE74FF00209D9E74FF00109D6E788
:1016F800034A002111761846BDE8F8830223FAE769
:10170800500500200020024082B0084B1B68084AA0
:10171800A2FB03235B0A00FB03F0019000BF019BBF
:101728005A1E0192002BF9D102B070470000002028
:10173800D34D621070B582B00446036813F0010FF0
:101748002CD0AB4B5B6803F00C03042B1DD0A84BCB
:101758005B6803F00C03082B12D06368B3F5803F75
:1017680041D0002B55D103F1804303F504331A68A7
:1017780022F480321A601A6822F480221A6037E054
:101788009B4B5B6813F4803FE7D0994B1B6813F4BD
:10179800003F03D06368002B00F0AE81236813F08C
:1017A800020F76D0924B5B6813F00C0F5FD0904B12
:1017B8005B6803F00C03082B54D02369002B00F05E
:1017C8008A808C4B01221A6001F086F80546884B06
:1017D8001B6813F0020F75D101F07EF8401B022838
:1017E800F5D903208BE1824A136843F480331360F0
:1017F800636843B301F070F805467D4B1B6813F42A
:10180800003FCBD101F068F8401B6428F5D90320CC
:1018180075E1B3F5A02F09D0754B1A6822F4803210
:101828001A601A6822F480221A60E1E703F1804303
:10183800A3F53C331A6842F480221A601A6842F40D
:1018480080321A60D4E701F047F80546684B1B68F8
:1018580013F4003FA2D001F03FF8401B6428F5D9EB
:1018680003204CE1624B5B6813F4803FA5D1604BC9
:101878001B6813F0020F04D02369012B01D001204B
:101888003DE15B4A136823F0F803616943EAC10349
:101898001360236813F0080F32D0A369002B5BD0C4
:1018A800554B01221A6001F017F80546504B5B6A48
:1018B80013F0020F21D101F00FF8401B0228F5D9CF
:1018C80003201CE14A4A136823F0F803616943EADC
:1018D800C1031360DDE7474B00221A6000F0FCFFEC
:1018E8000546434B1B6813F0020FD2D000F0F4FFFB
:1018F800401B0228F5D9032001E10120FFF704FF6E
:10190800236813F0040F00F09780394BDB6913F05C
:10191800805F33D1364BDA6942F08052DA61DB6995
:1019280003F080530193019B0125344B1B6813F48A
:10193800807F25D0E368012B36D0002B4CD103F1F2
:10194800804303F504331A6A22F001021A621A6A04
:1019580022F004021A622CE0274B00221A6000F0E1
:10196800BBFF0546224B5B6A13F0020FC8D000F09C
:10197800B3FF401B0228F5D90320C0E00025D4E7B7
:101988001E4A136843F48073136000F0A5FF0646EF
:101998001A4B1B6813F4807FCCD100F09DFF801B8D
:1019A8006428F5D90320AAE0114A136A43F0010319
:1019B8001362E36873B300F08FFF06460C4B1B6A93
:1019C80013F0020F37D100F087FF801B41F28833F4
:1019D8009842F3D9032092E0052B11D0044B1A6AE0
:1019E80022F001021A621A6A22F004021A62E0E77F
:1019F8000010024000004242800442420070004051
:101A0800414B1A6A42F004021A621A6A42F0010251
:101A18001A62CEE700F060FF06463B4B1B6A13F0E4
:101A2800020F08D000F058FF801B41F2883398421B
:101A3800F3D9032063E0E5B9E369002B5ED0324AAD
:101A4800526802F00C02082A5BD0022B17D02F4BE9
:101A580000221A6000F040FF04462B4B1B6813F06D
:101A6800007F47D000F038FF001B0228F5D903207B
:101A780045E0254AD36923F08053D361DCE7234B43
:101A880000221A6000F028FF05461F4B1B6813F060
:101A9800007F06D000F020FF401B0228F5D9032064
:101AA8002DE0236AB3F5803F1AD017494B6823F419
:101AB8007413226A606A024313434B60134B01227A
:101AC8001A6000F009FF04460F4B1B6813F0007FF3
:101AD8000ED100F001FF001B0228F5D903200EE00B
:101AE800094A536823F40033A1680B435360DCE7C9
:101AF800002004E0002002E0012000E0002002B005
:101B080070BD0120FBE700BF0010024060004242A8
:101B180010B487B0164C94E80F000DF1180C0CE9BE
:101B28000F00238AADF80430124B5B6803F00C02F7
:101B3800082A1AD1C3F38342624412F8100C13F432
:101B4800803F05D10C4B03FB00F007B010BC704779
:101B5800084B5B68C3F34043634413F8142C074BEA
:101B6800B3FBF2F300FB03F0EFE70448EDE700BF37
:101B7800D47B00080010024000093D0000127A00E2
:101B8800594B1B6803F007038B420CD2564A136863
:101B980023F007030B431360136803F007038B421A
:101BA80001D00120704770B5036813F0020F06D00A
:101BB8004E4A536823F0F0038468234353600C466D
:101BC8000546036813F0010F52D04368012B23D058
:101BD800022B28D0454A126812F0020F00F08280CA
:101BE80042494A6822F0030213434B6000F074FE36
:101BF80006466B68012B1DD0022B2AD03B4B5B6835
:101C080013F00C0F34D000F067FE801B41F28833CC
:101C18009842F3D9032064E0344A126812F4003F72
:101C2800DED101205DE0314A126812F0007FD7D181
:101C3800012056E02D4B5B6803F00C03042B17D0F2
:101C480000F04AFE801B41F288339842F2D9032003
:101C580047E0264B5B6803F00C03082B08D000F024
:101C68003BFE801B41F288339842F2D9032038E0CA
:101C78001D4B1B6803F00703A3420CD91A4A1368CB
:101C880023F0070323431360136803F00703A342F9
:101C980001D0012025E02B6813F0040F06D0134A69
:101CA800536823F4E063E9680B4353602B6813F02F
:101CB800080F07D00D4A536823F46053296943EA93
:101CC800C1035360FFF724FF084B5B68C3F303139A
:101CD800074AD35CD840074B1860002000F0CCFDC1
:101CE800002070BD0120FCE70020024000100240E7
:101CF800047C000800000020014B1868704700BFF2
:101D08000000002030B4036A23F001030362056A6F
:101D18004268846924F073040B681C4325F00205AB
:101D28008B682B43104DA84203D005F50065A842E7
:101D380005D123F00803CD682B4323F004030A4D93
:101D4800A84203D005F50065A84205D122F44072E7
:101D58004D6915438A692A43426084614A6842632F
:101D6800036230BC704700BF002C014030B4036AE6
:101D780023F480730362036A4268C46924F073041D
:101D88000D682C4323F400738D6843EA0523124D34
:101D9800A84203D005F50065A84206D123F40063E4
:101DA800CD6843EA052323F480630B4DA84203D092
:101DB80005F50065A84207D122F440524D6942EA70
:101DC80005128D6942EA05124260C4614A68C2631D
:101DD800036230BC704700BF002C014030B4036A76
:101DE80023F480530362036A4468C26922F4E6421A
:101DF8000D6842EA052223F400538D6843EA05334F
:101E0800094DA84203D005F50065A84204D124F481
:101E180080444D6944EA85144460C2614A6802649A
:101E2800036230BC704700BF002C014010B4036A45
:101E3800046A24F001040462846924F0F00444EA8A
:101E4800021223F00A030B438261036210BC70473D
:101E580010B4036A23F0100303628469036A24F44C
:101E6800704444EA023223F0A00343EA011382617A
:101E7800036210BC704710B4846824F47F4442EABB
:101E880003230B432343836010BC704710B50468D9
:101E9800A26822F070024B68134323F007030A6814
:101EA8001343A3604B68502B1ED00AD9602B21D056
:101EB800702B05D10B698A68C9680068FFF7DBFFDA
:101EC80010BD402BFCD103681C6A1A6A22F001027B
:101ED8001A620268936923F0F003096943EA01135F
:101EE800936103681C62EBE70A6989680068FFF779
:101EF8009DFFE5E70A6989680068FFF7A9FFDFE742
:101F08007047022380F83D300268136843F00103EC
:101F18001360012380F83D3000207047704738B5C2
:101F280090F83C30012B18D00446012580F83C502D
:101F3800022380F83D30FFF7A9FF2268D36823F019
:101F48004003D3602268D36823F48043D36084F8C5
:101F58003D50002084F83C0038BD0220FCE700001A
:101F68000368244A904212D002F5006290420ED0D3
:101F7800B0F1804F0BD0A2F59832904207D002F50D
:101F88008062904203D002F58062904203D123F030
:101F980070034A681343174A904212D002F5006250
:101FA80090420ED0B0F1804F0BD0A2F598329042FB
:101FB80007D002F58062904203D002F58062904219
:101FC80003D123F44073CA68134323F080034A699A
:101FD800134303608B68C3620B688362054B9842A6
:101FE80003D003F50063984201D10B690363012311
:101FF80043617047002C0140A8B110B5044690F821
:102008003D305BB1022384F83D30211D2068FFF785
:10201800A7FF012384F83D30002010BD80F83C3034
:10202800FFF76EFFEEE701207047A8B110B5044630
:1020380090F83D305BB1022384F83D30211D2068C3
:10204800FFF78EFF012384F83D30002010BD80F893
:102058003C30FFF763FFEEE70120704730B4036AB6
:1020680023F010030362036A4468826922F4E6429B
:102078000D6842EA052223F020038D6843EA051320
:10208800114DA84203D005F50065A84206D123F0FA
:102098008003CD6843EA051323F040030A4DA842A4
:1020A80003D005F50065A84207D124F440644D69C2
:1020B80044EA85048D6944EA8504446082614A687B
:1020C8008263036230BC7047002C014038B590F839
:1020D8003C30012B66D00D460446012380F83C3085
:1020E800022380F83D300C2A1AD8DFE802F00719DD
:1020F8001919201919193419191947000068FFF717
:1021080001FE2268936943F008039361226893698A
:1021180023F0040393612268936929690B4393614F
:10212800012384F83D30002084F83C0038BD006865
:10213800FFF794FF2268936943F400639361226870
:10214800936923F48063936122689369296943EA58
:1021580001239361E4E70068FFF708FE2268D3696A
:1021680043F00803D3612268D36923F00403D361E1
:102178002268D36929690B43D361D1E70068FFF767
:102188002DFE2268D36943F40063D3612268D369C2
:1021980023F48063D3612268D369296943EA012360
:1021A800D361BDE70220C1E710B4012303FA01F4AB
:1021B800036A23EA04030362036A8A40134303623F
:1021C80010BC704710B5044601220068FFF7ECFF09
:1021D8002368094A934203D002F50062934203D16F
:1021E8005A6C42F400425A642268136843F00103AF
:1021F8001360002010BD00BF002C014010B4042360
:1022080003FA01F4036A23EA04030362036A8A40B7
:102218001343036210BC704710B5044604220068DB
:10222800FFF7ECFF2268536C43F4004353642268C1
:10223800136843F001031360002010BD90F83C3090
:10224800012B25D0012380F83C30CB6823F4407360
:102258008A68134323F480634A68134323F40063B2
:102268000A68134323F480530A69134323F4005381
:102278004A69134323F480438A69134323F40043D0
:10228800134302685364002380F83C3018467047B3
:102298000220704790F83C30012B22D030B4012244
:1022A80080F83C20022380F83D300468636823F0FE
:1022B80070036360046863680D682B436360046897
:1022C800A36823F08003A3600468A36849680B43EC
:1022D800A36080F83D20002380F83C30184630BCCD
:1022E8007047022070470000034690F82420012A16
:1022F80020D0012280F824200268906810F0010F95
:1023080007D10D48806810F0010F02D10B488242B6
:1023180008D09A6A42F020029A620120002283F8CB
:1023280024207047506820F47020096801435160E8
:102338000020F3E7022070470028014000240140F4
:10234800074AD36823F4E0631B041B0C000200F463
:10235800E060184340F0BF6040F40030D060704740
:1023680000ED00E030B4174BDB68C3F30223C3F180
:102378000704042C28BF04241D1D062D18D9033B6F
:102388004FF0FF3505FA04F421EA0401994005FAF3
:1023980003F322EA0303194300280BDB0901C9B23E
:1023A80000F1604000F5614080F8001330BC7047D0
:1023B8000023E5E700F00F000901C9B2024B1954E8
:1023C800F4E700BF00ED00E014ED00E000F01F02AC
:1023D800400901239340024A42F82030704700BF69
:1023E80000E100E0BFF34F8F0549CA6802F4E062DC
:1023F800044B1343CB60BFF34F8F00BFFDE700BF13
:1024080000ED00E00400FA050138B0F1807F0AD23F
:10241800064B5860064AF02182F823100020986085
:1024280007221A6070470120704700BF10E000E0E3
:1024380000ED00E0042805D0054A136823F00403E2
:1024480013607047024A136843F00403136070472F
:1024580010E000E0704708B5FFF7FCFF08BD00007A
:10246800064B0022DA61064B1A6942F004021A612F
:102478001A6942F040021A61704700BF50050020F7
:1024880000200240064B0022DA61064B1A6942F02E
:1024980002021A6158611A6942F040021A617047D3
:1024A8005005002000200240264B1B7E012B46D001
:1024B80070B50E460446234B01221A760368022B98
:1024C80020D04CF25030FFF79BF890BB4FF0FF3311
:1024D8003360A5680122E168A36803EBC123AB421E
:1024E80028D92846FFF7CEFF4CF25030FFF788F87E
:1024F800154A136923F0020313610246B8B905F5BA
:102508000065E8E74CF25030FFF77AF808B101228D
:1025180010E00120FFF7A4FF4CF25030FFF770F8ED
:10252800024609490B6923F004030B6102E0356098
:1025380000E00122034B00211976104670BD0222EB
:10254800104670475005002000200240F0B482B0C9
:1025580000263546ABE0002C63D0012C00D1CE68B4
:10256800FF2B72D88446FF2B72D8AC00DCF8002011
:102578000F27A74022EA070206FA04F42243CCF800
:1025880000204A6812F0805F00F09080654A9469E4
:1025980044F001049461926902F001020192019AE7
:1025A800AC08A71C604A52F827C005F00302970040
:1025B8000F22BA402CEA020C5C4A90424ED002F537
:1025C8008062904200F08B8002F58062904200F0B9
:1025D800888002F58062904200F0858002F5806272
:1025E800904200F0828002F58062904234D0062248
:1025F80035E04F4FBC4214D00BD94E4FBC4210D0DF
:1026080007F58037BC420CD0A7F58017BC42A7D18C
:1026180007E0A7F58017BC4203D007F58037BC4216
:102628009ED18C687CB1012C08D04261082697E7BE
:10263800CE68083694E7CE680C3691E70261082622
:102648008EE700268CE704268AE700F1040C8AE767
:10265800A5F10804A40089E7052200E00022BA4099
:1026680042EA0C020234304F47F824204A6812F438
:10267800803F3CD0304C22681A4322604A6812F4EA
:10268800003F3AD02C4C62681A4362604A6812F4E0
:10269800801F38D0284CA2681A43A2604A6812F4F6
:1026A800001F36D0244CE2681343E36001350F2D38
:1026B80035D80122AA400B6813409A42F6D14C68DB
:1026C800122CB8D095D8022CB2D07FF644AF032C88
:1026D800B7D0112C7FF444AFCE68043640E701220E
:1026E800BDE70222BBE70322B9E70422B7E7124C91
:1026F800226822EA03022260C0E70F4C626822EADD
:1027080003026260C2E70C4CA26822EA0302A260DC
:10271800C4E7094CE26822EA0303E360C6E702B0B3
:10272800F0BC704700100240000001400008014062
:102738000000211000003110000401408368194294
:1027480001D1002070470120704712B909040161C6
:10275800704701617047C3685940C1607047000005
:1027680070B582B00446036813F0010F34D03E4BB5
:10277800DB6913F0805F48D13B4BDA6942F0805245
:10278800DA61DB6903F080530193019B0125374B24
:102798001B6813F4807F3AD0334B1B6A13F44073E1
:1027A80011D0626802F440729A420CD02E4A136A21
:1027B80023F440702E4901260E6000260E60106238
:1027C80013F0010F37D1284A136A23F44073616864
:1027D8000B431362002D3FD1236813F0020F06D07C
:1027E800214A536823F44043A1680B43536023688C
:1027F80013F0100F35D01C4A536823F48003616925
:102808000B435360002002B070BD0025BFE7174A94
:10281800136843F48073136000F05EF80646134BA8
:102828001B6813F4807FB7D100F056F8801B64282A
:10283800F5D90320E7E700F04FF806460A4B1B6A74
:1028480013F0020FBFD100F047F8801B41F2883324
:102858009842F3D90320D6E7D36923F08053D36194
:10286800BAE70020CFE700BF001002400070004028
:10287800400442427047000010B50446074B1868F0
:10288800074BA3FB00308009FFF7BEFD002221465D
:102898004FF0FF30FFF766FD002010BD000000205C
:1028A800D34D621008B5074A136843F0100313604C
:1028B8000320FFF745FD0020FFF7DEFFFFF7DAFFF3
:1028C800002008BD00200240024A1368013313604B
:1028D800704700BF70050020014B1868704700BFA3
:1028E8007005002030B583B00190FFF7F5FF05466D
:1028F800019CB4F1FF3F00D00134FFF7EDFF401B0E
:10290800A042FAD303B030BD7047000030B482B0A3
:102918000023019390F82430012B00F08B800246AD
:10292800012380F824304B68062B29D80568686B8A
:1029380003EB8303053B1F249C4020EA04000C683A
:1029480004FA03F303436B630B68092B38D9156842
:10295800E86803EB43031E3B07249C4020EA04007D
:102968008C6804FA03F30343EB600B68103B012BFC
:1029780034D90020002382F8243002B030BC7047DC
:102988000C2B0ED80568286B03EB8303233B1F240D
:102998009C4020EA04000C6804FA03F303432B6309
:1029A800D2E70568E86A03EB8303413B1F249C4098
:1029B80020EA04000C6804FA03F30343EB62C3E75C
:1029C8001568286903EB430307249C4020EA0400A8
:1029D8008C6804FA03F303432B61C6E713681648AF
:1029E800834205D0936A43F0200393620120C1E734
:1029F800986810F4000F1BD1986840F400009860A4
:102A08000B68102B01D00020B4E70C4B1B680C4955
:102A1800A1FB03139B0C03EB83035900019102E014
:102A2800019B013B0193019B002BF9D10020A1E7F9
:102A380000209FE70220A0E70024014000000020BA
:102A480083DE1B4330B583B00023019303689A6883
:102A580012F0010F2ED19A6842F001029A60174BCA
:102A68001B68174AA2FB03239B0C019302E0019BFE
:102A7800013B0193019B002BF9D10446FFF72CFF82
:102A8800054623689B6813F0010F11D1FFF724FF57
:102A9800401B0228F5D9A36A43F01003A362E36A36
:102AA80043F00103E362002384F82430012002E0AC
:102AB800002000E0002003B030BD00BF000000206F
:102AC80083DE1B4390F82430012B6AD010B50446EE
:102AD800012380F82430FFF7B5FF024600285BD1B8
:102AE800A36A23F4407323F0010343F48073A362C1
:102AF80023682D498B4227D0A16A21F48011A16255
:102B0800596811F4806F05D0A16A21F4405141F44D
:102B18008051A162A16A11F4805F2BD0E16A21F093
:102B28000601E162002184F824106FF002011960A7
:102B38002368996801F46021B1F5602F1DD0996868
:102B480041F4801199602AE0A1F58061496811F487
:102B5800702FD1D0A16A41F48011A162134949684C
:102B680011F4806FD6D0A16A21F4405141F480510C
:102B7800A162CFE70021E162D4E70B498B4204D080
:102B8800996841F4A001996009E0A1F5806149685C
:102B980011F4702FD3D1F3E7002384F824301046C2
:102BA80010BD022210467047002801400024014051
:102BB80038B503689A6812F0010F01D1002038BDBA
:102BC80004469A6822F001029A60FFF785FE0546DE
:102BD80023689B6813F0010F0ED0FFF77DFE401BA2
:102BE8000228F5D9A36A43F01003A362E36A43F00D
:102BF8000103E3620120E2E70020E0E7002800F09B
:102C08008A8070B50446836A002B36D02046FFF7C9
:102C1800CFFFA36A13F0100377D1002875D1A26AF9
:102C280022F4885222F0020242F00202A262626892
:102C380025683A498D4226D0E1690A43E66842EAA6
:102C48004602A168B1F5807F27D0012922D06169A9
:102C5800012925D0696821F469410B436B6021681B
:102C68008D682F4B2B4013438B60A368B3F5807F8F
:102C780027D0012B25D0002126E0C36280F824301C
:102C8800FFF742FEC2E7E169B1F5402FD5D14FF415
:102C98000021D2E74FF48073D9E74FF48073D6E769
:102CA80036B9A169013943EA413343F40063D1E7F6
:102CB800A16A41F02001A162E16A41F00101E162EB
:102CC800C8E72369013B19052568EB6A23F47003FB
:102CD8000B43EB6223689968124B0B409A420BD066
:102CE800A36A23F0120343F01003A362E36A43F0DC
:102CF8000103E36201200DE00023E362A36A23F0ED
:102D0800030343F00103A36204E0A36A43F0100342
:102D1800A362012070BD0120704700BF003C014044
:102D2800FDF7E1FFFE0E1FFF0268D36823F0C00322
:102D3800D360202380F8393070470268D36823F4C1
:102D48009073D3600268536923F001035361202311
:102D580080F83A307047000038B590F83940E4B24E
:102D6800202C31D1002931D0002A31D090F83830C8
:102D7800012B2FD013460446012280F83820016227
:102D88008384C3840025C563212280F83920026B1F
:102D980011489062226B1148D062226B1048106370
:102DA800226B556322680432206B00F07DF823689B
:102DB8006FF040021A6084F838502268536943F073
:102DC80080035361284600E0022038BD0120FCE75B
:102DD8000120FAE70220F8E7EF2D0008212E00086D
:102DE8002D2E0008704708B5436A0268126812F071
:102DF800200F0CD10022DA8419684A6922F0800277
:102E08004A611A68D36843F04003D36008BD184686
:102E1800FFF7E8FFFAE7704708B5406AFFF7FBFFDE
:102E280008BD704710B5446A23685A6994F8393068
:102E3800DBB2212B10D023685A6902F0400294F8C3
:102E48003A30DBB2222B11D0E36B43F01003E3637B
:102E58002046FFF7E6FF10BD02F08002002AEAD004
:102E68000023E3842046FFF75FFFE4E7002AEBD066
:102E78000023E3852046FFF760FFE5E770B4066CA2
:102E8800C56B0124B4406C60046863604368102B10
:102E980005D0036899600368DA6070BC70470368FE
:102EA8009A600368D960F8E738B590F82040012C9B
:102EB80032D0012480F8204090F82140012C04D021
:102EC800002380F82030022038BD0446022084F810
:102ED80021000020A0632568286820F001002860F0
:102EE8002046FFF7CBFFE36A5BB12268136843F023
:102EF8000E0313602268136843F001031360002077
:102F0800E2E72268136823F0040313602268136859
:102F180043F00A031360EDE70220D5E70F4B1A6868
:102F280042F001021A6059680D4A0A405A601A684C
:102F380022F0847222F480321A601A6822F4802205
:102F48001A605A6822F4FE025A604FF41F029A600F
:102F5800044B4FF000629A60704700BF00100240B7
:102F68000000FFF800ED00E02DE9F04F89B0884B34
:102F78009A6942F004029A619A6902F00402019285
:102F8800019A9A6942F008029A619A6902F0080265
:102F98000292029A9A6942F010029A619B6903F0C0
:102FA80010030393039B4FF00009CDF818900226F5
:102FB80007964FF0200ACDF810A0764B059304A988
:102FC8007548FFF7C3FA4023049304A97248FFF732
:102FD800BDFA4FF08008CDF8108004A96E48FFF7BD
:102FE800B5FA4FF48064049404A96C48FFF7AEFA6C
:102FF8004FF40063049304A96848FFF7A7FA4FF455
:103008008055049504A96548FFF7A0FACDF81490F7
:1030180004950127069704A96148FFF797FACDF8A8
:103028001890049604A95E48FFF790FA05974FF0A8
:103038000409CDF8109004A95748FFF787FA10251E
:1030480004950DEB05015648FFF780FACDF810A05E
:103058000DEB05015248FFF779FA0323059304970E
:103068000DEB05014D48FFF771FA04970DEB0501CB
:103078004B48FFF76BFA4FF0080BCDF810B00DEB8B
:1030880005014648FFF762FA04960DEB050143482F
:10309800FFF75CFA04950DEB05014048FFF756FA77
:1030A800CDF810A00DEB05013C48FFF74FFACDF81D
:1030B80010900DEB05013948FFF748FACDF810B02C
:1030C8000DEB05013648FFF741FACDF810900DEBEE
:1030D80005013348FFF73AFA0596402304930DEBB0
:1030E80005012E48FFF732FACDF810800DEB0501E7
:1030F8002A48FFF72BFA4FF48079CDF810900DEBA2
:1031080005012648FFF722FACDF810800DEB0501DE
:103118002348FFF71BFA04970DEB05011E48FFF73C
:1031280015FA04960DEB05011B48FFF70FFACDF8C9
:1031380010900DEB05011A48FFF708FA4FF40073D9
:1031480004930DEB05011648FFF700FA04940DEB04
:1031580005011348FFF7FAF94FF4005304930DEBF8
:1031680005010D48FFF7F2F94FF4804304930DEB86
:1031780005010948FFF7EAF94FF4004304930DEB02
:1031880005010548FFF7E2F909B0BDE8F08F00BF77
:103198000010024000003110000C014000100140F6
:1031A800000801402DE9F04F99B0754B9A6942F437
:1031B80000629A619A6902F400620192019A9A691E
:1031C80042F400529A619B6903F400530293029BF4
:1031D8006C4EDFF8B891C6F80090002474604FF088
:1031E8002008C6F808804FF4FA6BC6F80CB03461B2
:1031F8007461B4613046FEF718FF102316931794D4
:1032080016A93046FFF746F860230F9310941194DF
:1032180008271297139414944FF4007315932246B9
:103228000FA93046FEF752FF04220FA93046FEF7D9
:103238004DFF3A460FA93046FEF748FF4FF40063AA
:1032480008934FF4806309930A94CDF82C800C946A
:103258000D940E940DEB08013046FEF7EFFF4A4D32
:10326800DFF82CA1C5F800A06C60C5F80880C5F887
:103278000CB02C616C61AC612846FEF7D6FECDF827
:1032880058808023179316A92846FFF703F804945B
:1032980018A9052341F8543D2846FEF740FE60234F
:1032A8000F93109411941297139414944FF400737D
:1032B800159322460FA92846FEF708FF04220FA9F6
:1032C8002846FEF703FF3A460FA92846FEF7FEFEFA
:1032D8004FF4006308934FF4806309930A94CDF880
:1032E8002C800C940D940E940DEB08012846FEF7E3
:1032F800A5FFDAF8443023F40043CAF84430D9F87B
:10330800443023F40043C9F8443021462846FEF7E8
:1033180059FF04212846FEF755FF39462846FEF78F
:1033280051FF21462846FEF777FF04212846FEF77D
:1033380073FF39462846FEF76FFF21463046FEF7F1
:1033480041FF04213046FEF73DFF39463046FEF77F
:1033580039FF21463046FEF75FFF04213046FEF76D
:103368005BFF39463046FEF757FF2B6801221A6388
:103378003268136843F00103136019B0BDE8F08F99
:10338800001002403C060020CC070020002C014021
:10339800003401402DE9F04186B0424EB36943F450
:1033A8000073B361B36903F400730093009B3E4C50
:1033B8003E4B23604FF48073A3600025E560656190
:1033C8004FF44023E36165604FF00508C4F81080AE
:1033D8002046FFF713FC364A536843F480235360B2
:1033E80006A94FF4C02341F8043D2046FEF77CFFB0
:1033F800012304930E220292039302A92046FFF7A9
:1034080085FA02950227039702A92046FFF77EFA5C
:1034180004970B2702970323039302A92046FFF77B
:1034280075FA0C2302930423039302A92046FFF79D
:103438006DFA0723049310230293CDF80C8002A998
:103448002046FFF763FA2268936843F4000343F4C5
:1034580080739360936843F001039360736943F04A
:1034680001037361736903F001030193019B114B1D
:103478001D60C3F80480104A9A60104ADA6040F66A
:10348800A2221A601A6842F001021A602A462946E6
:103498003846FEF767FF3846FEF798FF06B0BDE8E6
:1034A800F08100BF00100240040700200024014002
:1034B80000000140080002404C2401407807002029
:1034C800F0B585B0284B9A6942F480629A619B698D
:1034D80003F480630093009B244C254B23604FF436
:1034E8008073A3600023E36063614FF46022E261AC
:1034F8006360052626612046FFF780FB01230393BE
:103508000F220192029301A92046FFF7FFF90D232C
:1035180001930225029501A92046FFF7F7F90395C3
:103528000A2301930327029701A92046FFF7EEF922
:103538000195042302930DEB03012046FFF7E6F9FA
:10354800072303930197029601A92046FFF7DEF9A6
:1035580023689A6842F480729A609A6842F001027D
:103568009A6005B0F0BD00BF00100240B805002009
:103578000028014010B51C4B1C682046FCF7AAFF28
:1035880000220023FDF782FA58B16442132CCCBF05
:103598000024012434B30024144B1C70144B1C70F9
:1035A8000AE0132CCCBF00240124F3E7114B1C7054
:1035B8006420FFF797F90134072CF7DD002220215A
:1035C8000D48FFF7C2F802210B48FFF7B7F80028AB
:1035D800F9D102210848FFF7B1F80028F9D0FEF721
:1035E80001FFF6E710BD00BF08090020E80400202D
:1035F800F4040020E4040020000801402DE9F04F05
:1036080089B06824224600214A4803F076F9224608
:103618000021494803F071F94FF0000B83E0474E51
:103628004FEA0B1806EB08074FF0000946F8089018
:103638003B1D0793C7F80490342404FB0BF43D4B5F
:10364800E21804923E4D6888FDF776FB0590A8883D
:10365800FDF772FB0690E888FDF76EFB08F1080A93
:1036680056443849FDF774FC029036490698FDF730
:103678006FFC019033490598FDF76AFC0090079BA1
:1036880032463946049800F003FE28894742FDF780
:1036980053FB06463846FDF753FB32460146049E67
:1036A800304600F087FD304600F0B6FD264E06EBAA
:1036B800080746F8089007F10408C7F804901E4B5D
:1036C8001C446889FDF738FB8146A889FDF734FB5F
:1036D8000490E889FDF730FB56441A49FDF738FC99
:1036E800029018490498FDF733FC019015494846A3
:1036F800FDF72EFC0090434632463946204600F03E
:10370800C7FD288A4642FDF717FB05463046FDF7F8
:1037180017FB2A460146204600F04CFD204600F0E3
:103728007BFD0BF1010BBBF1010F7FF778AF09B0FF
:10373800BDE8F08F7C0800200C08002084040020DD
:10374800E40800200000C842A40400202DE9F04746
:1037580000265FE0342505FB06F5304F2F44304C3A
:103768006088FDF7E9FA8246A088FDF7E5FA804609
:10377800E088FDF7E1FA2B49FDF7EAFB8146294984
:103788004046FDF7E5FB804626495046FDF7E0FB3D
:103798004B4642460146384600F0CAFC2089C0F133
:1037A8000009FDF7C9FA80464846FDF7C9FA4246BE
:1037B8000146384600F0FEFC1B4B1D446089FDF7AE
:1037C800BBFA8146A089FDF7B7FA0746E089FDF7FD
:1037D800B3FA1449FDF7BCFB804612493846FDF799
:1037E800B7FB07460F494846FDF7B2FB43463A4642
:1037F8000146284600F09CFC208A4742FDF79CFAC7
:1038080004463846FDF79CFA22460146284600F051
:10381800D1FC0136012E9DDDBDE8F0877C08002033
:10382800E40800200000C8420C08002030B587B02A
:10383800142101A802F01EFF142805D1BDF80420A8
:1038480040F2D2439A420CD001AC0B4D0FCD0FC4BD
:103858002B682360142101A802F05CFE074801F0E0
:10386800C7F9074D01AC0FCC28606960AA60EB600E
:103878002068286107B030BD147C0008287C000847
:10388800E408002030B597B002250C950123109369
:10389800102311931395002414944FF46013159377
:1038A8000CA8FDF747FF0F230793089509944FF4D9
:1038B80080630A930B94294607A8FEF761F90195DE
:1038C8004FF44043039301A8FEF74AFFFEF714FAAA
:1038D800084BA3FB00308009FEF796FD0420FEF795
:1038E800A9FD224621464FF0FF30FEF73BFD17B0F9
:1038F80030BD00BFD34D62102DE9F04FC3B0FEF7C5
:10390800D1FF9F4CA36943F00103A361A36903F0AE
:1039180001030793079B0320FEF712FD00221146BF
:103928006FF00B00FEF71EFD002211466FF00A0033
:10393800FEF718FD002211466FF00900FEF712FD90
:10394800002211466FF00400FEF70CFD002211461C
:103958006FF00300FEF706FD002211466FF001002C
:10396800FEF700FD002211464FF0FF30FEF7FAFC8B
:10397800FFF788FF636923F001036361FFF7F4FA37
:10398800FFF710FCFFF706FDFFF79AFD482200211C
:103998007C4802F0B2FF012220217B48FEF7D5FEC9
:1039A8007A48FFF78FF87A48FFF78CF8FFF73EFF61
:1039B800FFF724FE0824002C19DA0027754B1F7026
:1039C800012204217448FEF7C0FE02F01DFC01F03C
:1039D80029F9724B188AFDF7AFF90546704B012299
:1039E8001A7002216848FEF7A9FE044605E3694BF0
:1039F8001C706420FEF776FF013CDCE701F0A6F9B5
:103A0800C0B202F0C3FB01F0BDF90028F6DCFEF7F6
:103A180063FF731D9842F6D30023624A1360624A1B
:103A28001360C4B9614B5B8AABB9614B1B68BB427D
:103A380002D15B4B1B781BB9FFF7E0FD5C4B1F689D
:103A48005B4B1B68022B00F07181032B00F07A811D
:103A5800012B00F08580524B1B781BB9554B002277
:103A68005A601A60534B5E68534A16601B685B4283
:103A7800524A1360524B1A68511C1960514BA3FBF0
:103A880002135B09642101FB1323002B00F05C8106
:103A9800002C00F0BE8102213B48FEF74FFE0028B3
:103AA80000F0D481374B5B6913B9474B1B6813B1DE
:103AB800464B00221A60464B1E6846493046FDF7C1
:103AC80031FB002800F0CA81434BD3F80080404600
:103AD800FCF700FD00220023FCF7D8FF002840F087
:103AE800B781B8F1130F00F3B981FFF743FDCDE1BA
:103AF8000136012EAFDC4FF03408384B08FB06388E
:103B0800404600F0B5FA0028F2D0DFF8E4B04FEAFA
:103B1800061A0BEB0A09324B53F82600FDF710F989
:103B2800C9F804002F4B03EB4613D868FDF708F9D2
:103B38004BF80A00404600F0A7FAD9F80800FDF74C
:103B480019FB03461B4A42F82600002ED0D1324604
:103B5800254910A802F00EFF10A801F049F8C7E7A0
:103B68002646C6E7C9F1000392E0204B03EB061A8C
:103B78004846FDF7E5F8CAF80400049494E000BF4D
:103B8800001002401409002000080140040700202A
:103B9800B8050020E4040020000C0140780700204C
:103BA800F404002010090020FC080020E40800208C
:103BB80020050020DC040020080500200405002062
:103BC800C80400201F85EB51CC0400207408002095
:103BD80008000020CCCC0642080900207C08002000
:103BE8002C00002018100020407C0008A4040020AD
:103BF80084040020BC4B53F826200244BB4B9B682E
:103C08009A4203DC5B429342B8BF1346B64A42F875
:103C18002630002E6ED00136012E3FF71CAFB44B74
:103C280003EB46135869DFF8D4A24FEA06180AEBEB
:103C38000809FDF785F801465AF80800FCF7CCFF9B
:103C48004AF80800D9F80C300133C9F80C30A94BF0
:103C58001B782BB900204AF808000123C9F80C305A
:103C68004FF03408A44B08FB0638404600F000FA31
:103C78000028D0D09D4B53F826904846FCF72AFCE4
:103C880000220023FCF702FF00287FF46BAF4B46AD
:103C9800964A12699A427FF768AF984B03EB06136E
:103CA80000225A6001230493DFF850B24FEA061A43
:103CB8000BEB0A095BF80A300593D9F80C00FDF7FD
:103CC8003FF801460598FDF743F94BF80A00002331
:103CD800C9F80C30404600F0D7F9D9F80800FDF7CC
:103CE80049FA8046049B002B84D07F4B002243F87E
:103CF80026208EE7814A3301D118D1F804A07A49E9
:103D080051F82690D058FDF735FA02905046FDF745
:103D180031FA0190CDF800804B463246784910A818
:103D280002F028FE10A800F063FF74E7264673E748
:103D38006E4A52F823106C4A42F823100133012BC3
:103D4800F6DD88E62346FAE72846FCF7D5FB62A3AA
:103D5800D3E90023FCF728FC80468946DFF8E0A178
:103D6800BAF81000FCF7E8FFFCF7C6FB5CA3D3E940
:103D78000023FCF719FC02460B4640464946FCF76F
:103D88005DFAFCF7D3FE05465E49FCF723FF5E4962
:103D9800FDF72AF85D49FCF71FFF8046BAF81020A6
:103DA80092B25B4B9A60DD6018615A4A926812F4CD
:103DB800805F0CBF012200225A6131B2022000F05C
:103DC800D1FE494BB3F90010032000F0CBFEBAF83E
:103DD8000C1009B2042000F0C5FE4F494F4B18687B
:103DE800FDF702F8FDF7C6F901B2052000F0BAFEAA
:103DF8002846FDF7BFF901B2062000F0B3FE4046A1
:103E0800FDF7B8F901B2072000F0ACFE00F0B0FEF3
:103E18003EE602213F48FEF791FC00283FF442AEFF
:103E28003F4B1B68002B7FF43DAE3E4B1B68002BBD
:103E38007FF438AE2F4B00221A7002213548FEF766
:103E48007DFC0028F9D1FFF795FB2BE6002429E635
:103E5800C8F10008B8F1130F7FF747AE3249304672
:103E6800FDF760F958B131493046FDF779F930B1BD
:103E78002F4B05221A702F4B06221A7006E02E4B84
:103E88001B68002B22DD013B2B4A1360164B1E6872
:103E98003046FCF71FFB00220023FCF7F7FD002843
:103EA80050D1322E51DC104B5E683046FCF712FBC5
:103EB80000220023FCF7EAFD002840F0A280322E01
:103EC80043DC1E4A13680133136041E00023184A9B
:103ED8001370184A1370D9E7AE47E17A14AEEF3F72
:103EE8007B14AE47E17A843FDC0400204C000020BC
:103EF80018100020F40400200C080020A40400205E
:103F0800487C000800E0CE44083748BE33330F42EF
:103F180014090020000801400000C84208000020E1
:103F2800100500200C05002000000C42CCCC0642F5
:103F3800E4040020E8040020C404002074080020E1
:103F4800780700207642322EADDD3E4B00221A6003
:103F58003C4B1B683C4A93420CD93C4A12784AB9FC
:103F68003A4A032111703A4A01211170394A4FF433
:103F78007A711160384A93420CD9344A12784AB996
:103F8800324A02211170324A01211170314A4FF42C
:103F98007A711160314A934237D8314B1B68002B34
:103FA8002BDD013B2E4A13602E4981FB0321DA17D2
:103FB800C2EBE1124FF4C87101FB12325AB3284B1D
:103FC8001B68B3F5FA6F09DC204A03211170204AF7
:103FD800012111701F4A4FF47A711160B3F57A7F8D
:103FE80009DC1A4A02211170194A01211170194A73
:103FF8004FF47A711160002B1DDDFEF76DFC06464B
:1040080005E57642322EA0DC5BE70E4B00221A60F3
:10401800FFF7B0FAC1E703EB8303134A82FB0312ED
:10402800DB17C3EBA212114908A802F0A3FC08A8E9
:1040380000F0DEFDC3E70A4B00221A60FFF79AFA88
:10404800DBE700BF740800206A040100E4040020D4
:10405800E8040020C4040020751E01008038010017
:10406800D80400201F85EB51D34D6210607C0008F6
:1040780010B50446FEF730FCA36AC01AE36A9842FA
:1040880034BF0020012010BD2DE9F84390F83030EE
:10409800002B40D0044603681E68836831461868C0
:1040A800FCF798FD074601462069FCF79DFE216A4A
:1040B800FCF792FD80462062E5692946FDF750F835
:1040C80000282AD02562616A3046FCF783FD8046C5
:1040D8003946E068FCF788FE216AFCF77DFD074653
:1040E80041466069FCF780FE01463846FCF772FDE0
:1040F800074601462846FDF715F830B9A56939463F
:104108002846FDF72DF800B93D4663681D606662D4
:10411800FEF7E2FBA062BDE8F883D4F818904946A0
:104128004046FCF7FFFF0028CDD0C4F82090CAE72E
:104138002DE9F84304460D4616461F460021284639
:10414800FCF7F0FF08BB00213046FCF7EBFFE0B9B5
:1041580000213846FCF7E6FFB8B9E06AFCF7ECFD49
:104168001349FCF7F5FE8046E56001463046FCF74A
:104178003BFE8146206141463846FCF7E9FE06468B
:10418800606194F83130012B01D0BDE8F8832946ED
:104198000020FCF71FFDE06049460020FCF71AFDEF
:1041A800206131460020FCF715FD6061EDE700BF96
:1041B80000007A442DE9F04104460E4615461146A2
:1041C8003046FCF7C3FF28BBA661E56194F83030A0
:1041D80003B36768D7F8008029464046FCF7C0FF5C
:1041E80078B13D60256AE66931462846FCF7B8FF94
:1041F80078B9A66931462846FCF794FF50B1266283
:1042080008E031464046FCF78DFF0028EAD03E60C2
:10421800E8E72662BDE8F08190F83030DBB970B588
:10422800044643681D68056203681B684362C669E3
:1042380031462846FCF794FF20B12662012384F812
:10424800303070BDA66931462846FCF76BFF002860
:10425800F4D02662F2E7704738B504460D4690F868
:10426800303093B190F831308B420ED0C1680020C5
:10427800FCF7B0FCE06021690020FCF7ABFC206192
:1042880061690020FCF7A6FC606184F8315038BDF4
:1042980038B50446016042608360002580F83050DC
:1042A8000B4A0021FFF786FF6423E3622946204674
:1042B800FFF7D2FF069B059A04992046FFF738FFBF
:1042C800FEF70AFBE36AC01AA062204638BD00BFA9
:1042D80000007F43000000002DE9F04782B072B66D
:1042E800AD4B1B685A6AAD4BD3E90001AC4B9B68D8
:1042F80003F0E003DB43C3F342138DF80430A94B0A
:104308009B6803F4E053DB43C3F382238DF8053045
:1043180062B60C0444EA1044030443EA0208A146C6
:1043280000260BE02901A04B03EB46139A690023F2
:10433800200141EA1471FCF743FF0136012E1EDC0F
:10434800730033441A01994F1744D7E90445B8EB71
:10435800040469EB0505D7F82CA06FF009024FF0AB
:10436800FF3320462946FCF72BFF5044F862FA6ACF
:10437800D317A242AB41D5DA3B46DC62D2E78C4B7D
:1043880002225A608B4B1B68B3F57A7FC0F23A81E0
:10439800894B1B68894CA4FB0324A4094FF47A7247
:1043A80002FB14341CBB864D2868FCF7A5F874A3DF
:1043B800D3E90023FCF7F8F806460F46814B9889A5
:1043C800FCF7BAFC8049FCF70FFDFCF795F86EA3E3
:1043D800D3E90023FCF7E8F802460B463046394695
:1043E800FBF72CFFFCF7A2FB2860784B5860754B55
:1043F8005889774B1D68401BFCF76CF80022002396
:10440800FCF744FB002840F032816E4B5889401B72
:10441800FCF796FCFCF770F85DA3D3E90023FCF7E2
:10442800C3F8FCF783FB0746664B1889694B1E687F
:10443800801BFCF74FF800220023FCF727FB00281D
:1044480040F01B815F4B1889801BFCF779FCFCF757
:1044580053F84FA3D3E90023FCF7A6F8FCF766FB53
:1044680006465A4B9F611863564B5889401BFCF708
:1044780031F800220023FCF709FB002840F00381F3
:10448800504B5889401BDFF84481D8F81C90FCF742
:1044980057FC4946FCF7A0FBC8F81C00494B588953
:1044A800401BFCF717F800220023FCF7EFFA00285E
:1044B80040F0ED80434B5889401B444DD5F834807B
:1044C800FCF73EFC4146FCF787FB6863B4F5FA7FCE
:1044D80000F0E18040493846FCF742FE40B93F4BC6
:1044E8001B68052B04D83E4B1B78002B40F0F58049
:1044F8003C4A536C23F40043536437493046FCF775
:104508002FFE40B9354B1B68052B04D8344B1B785C
:10451800002B40F0E880344A536C23F40043536482
:104528009DF804303148C15C0231314B83FB0142B4
:1045380002EB420254000A1B2E490A609DF805202E
:10454800825C023283FB020303EB43035800131A15
:10455800294A136009681B488388284A12689A1AEE
:10456800C388274800681B1A052900F20D81DFE877
:1045780011F0C000FB00FE0001010401070100BFAB
:10458800AE47E17A14AEEF3F7B14AE47E17A843F41
:104598007B14AE47E17A943F58100020380500207C
:1045A800000C01400010014018100020B80F002036
:1045B80000000240F8040020EC040020D34D6210F3
:1045C800080000207807002017B9CE3C1409002005
:1045D8000C000020100000200000704104000020A2
:1045E800F404002000340140002C0140747C0008D1
:1045F800ABAAAA2AFC040020000500201400002011
:104608001800002001339E4A13609E4A90889E49F4
:104618000B68034403EBD3735B100B60D0889B4992
:104628000B68034403EBD3735B100B601088984945
:104638000B68034403EBD3735B100B6050889549F8
:104648000B68034403EBD3735B100B6050899249EA
:104658000B68034403EBD3735B100B6011898F4A1B
:1046680013680B4403EBD3735B10136066E2854B4E
:104678005889281AFCF764FBCCE6824B1889301A53
:10468800FCF75EFBE3E67F4B5889281AFBE67D4B77
:104698005889281A11E7E869FBF72EFF76A3D3E9B2
:1046A8000023FBF781FF00227D4BFCF7A7F8FCF7FE
:1046B8003DFA2862686BFBF71FFF6FA3D3E900235D
:1046C800FBF772FF0022764BFCF798F8FCF72EFAFE
:1046D800A8630023EB616B63FCE6724A536C43F4F6
:1046E8000043536409E7704A536C43F4004353642E
:1046F80016E7D31A6D4A1360624A9188624B1B68A9
:10470800C91A6B4B5962D18860480068091A9962C6
:1047180066490968D96211885D480068091AD96331
:1047280052885C490968521A1A6400225A64614A1C
:10473800136801331360604A106848B35F4AA2FBEC
:104748000312120B5E4909680131B2FBF1F401FB57
:104758001422EAB9B3FBF0F200FB1233EBB91021D3
:104768005848FDF7F8FF18E0504B1A60C4E74F4B64
:104778001A60C1E74D4A1360BEE74C4A1360BBE7B5
:104788009B1A4A4A1360B7E7484B00221A60B3E7FE
:10479800002210214B48FDF7D8FF4B4BD3F800C03F
:1047A8004A4B1B68052B2BD8DFE803F00312171CB4
:1047B8002226CCF1000064469C46454B1968454BBF
:1047C8001B68052B52D8DFE803F01F3F43474B4EC9
:1047D8006446CCF1000C0020EFE76046CCF1000CF9
:1047E8000024EAE7CCF1000460464FF0000CE4E74F
:1047F800CCF100040020E0E7CCF100000024DCE765
:10480800002004468446D8E74E420F4619462E4BF0
:104818001B68002B40F3A2802F4B1D682B4B1B6895
:1048280005332E4A82FB03E2A2EBE37202EB42025B
:104838004FEA420EA3EB0E02052A00F2C380DFE81E
:1048480002F04F74797E83880F4649420026DEE7DE
:104858000E4649420027DAE74F420E460021D6E7C6
:104868004F420026D3E74E420027D0E700263746BE
:104878003146CCE7AFF300807B14AE47E17A943F32
:10488800F8040020780700201400002018000020F9
:104898001C000020200000200C0000201000002038
:1048A80000408F4000340140002C0140F0040020FB
:1048B80014090020EC040020E40400205917B7D1A3
:1048C800E80400200008014004050020FC04002042
:1048D80008050020000500200C050020ABAAAA2A24
:1048E800C5F10008AE461546654474444044954BEE
:1048F8001B68002B40F39A80934B1B68934A1268FD
:1049080002F1050C924A82FB0CE2A2EBEC7202EB7C
:1049180042024FEA420EACEB0E02052A00F2BC80BE
:10492800DFE802F0586B70757A7FAE466D424FF043
:104938000008D9E7A8466D424FF0000ED4E7C5F14C
:10494800000EA8460025CFE7C5F1000E4FF000087D
:10495800CAE7C5F100084FF0000EC5E77D4B1D689A
:10496800C5F1000E7C4B1A680132794B83FB028338
:10497800A3EBE27303EB43034FEA4308A2EB0803FC
:10498800052B1AD8DFE803F00323060A0E14A846FD
:104998001D46A9E7F0464FF0000EA5E7F046AE46E3
:1049A8000025A1E72B4675469E464FF000089BE779
:1049B800A84675464FF0000E96E74FF00008C64629
:1049C800454691E74FF00008C64645468CE74FF04C
:1049D800000889E7C3F100089E461346194407EB0F
:1049E8000E0206EB080305F57A7540F2C676B54265
:1049F8005ADC0A2DB8BF0A2558E09E465B424FF0A4
:104A08000008EBE798465B424FF0000EE6E7C3F17B
:104A1800000E98460023E1E7C3F1000E4FF00008AE
:104A2800DCE7C3F100084FF0000ED7E7464B1B68E0
:104A3800C3F1000E454A12680132DFF814C18CFB3D
:104A4800028CACEBE27C0CEB4C0C4FEA4C08A2EB72
:104A5800080CBCF1050F1AD8DFE80CF00323060A8E
:104A68000E1498466346B9E7F0464FF0000EB5E7D6
:104A7800F0469E460023B1E71A46734696464FF025
:104A88000008ABE7984673464FF0000EA6E74FF0D4
:104A98000008C6464346A1E74FF00008C64643460D
:104AA8009CE74FF0000899E740F2C6752B4E7563F6
:104AB80004F57A7440F2C675AC4203DC0A2CB8BF20
:104AC8000A2401E040F2C674244DAC6300F57A7004
:104AD80040F2C674A04203DC0A28B8BF0A2001E0ED
:104AE80040F2C6701D4CE06301F57A7140F2C67061
:104AF800814203DC0A29B8BF0A2101E040F2C671ED
:104B08001748416302F57A7240F2C6718A4203DCA3
:104B18000A2AB8BF0A2201E040F2C67210498A6325
:104B280003F57A7340F2C672934203DC0A2BB8BFCE
:104B38000A2301E040F2C673094AD36302B0BDE814
:104B4800F08700BF080500201005002000050020A0
:104B5800ABAAAA2A0C050020FC040020003401405E
:104B6800002C0140014B23F810107047C0090020A9
:104B78001A4B1B6813B11A4B1B6803B97047F0B581
:104B880087B0184C64220021204601F0B6FE164971
:104B98000A88B1F802C0888800B2CD882DB20E8983
:104BA80036B24F893FB28B891BB2C98909B20591C8
:104BB800049303970296019500900FFA8CF312B2B2
:104BC8000A49204601F0D6FE2046FBF729FB01469C
:104BD800204600F011F907B0F0BD00BF2800002002
:104BE800240000205C090020C00900207C7C00080B
:104BF80010B50446094B1B6843B92046FBF710FB68
:104C080082B221460648FEF7A7F810BDFBF708FB5D
:104C18000146204600F0F0F8EFE700BF240000202E
:104C28008C0700202DE9F04786B0404D4FF48C7674
:104C380032460021284601F060FE3D4C32460021F4
:104C4800204601F05AFE4FF0FF33C5F80831C4F88A
:104C58000831012704974FF0030ACDF814A04FF04C
:104C68000808CDF80880334B0393DFF8DC900DEB90
:104C780008014846FDF76AFC2F4EF3693B43F36190
:104C8800F3693B400093009B2C4D4FF080432B6011
:104C980040F241336B600024AC604FF6FF73EB6069
:104CA8002C616C61AC612846FDF7A6F92846FDF732
:104CB80028F903970497CDF814A0042302930DEB69
:104CC80008014846FDF742FCF36943F00203F3612B
:104CD800F36903F002030193019B194D194B2B60F3
:104CE80040F605536B60AC60EF602C616C61AC61A1
:104CF8002846FDF781F92846FDF703F92A68D368A5
:104D08003B43D360224621461D20FDF72BFB1D2087
:104D1800FDF75CFB224621464046FDF723FB404653
:104D2800FDF754FB06B0BDE8F08700BFD0090020AE
:104D3800E80A00200000311000100240000C00209A
:104D4800400C002000040040000801400C4BD3F840
:104D58000021D3F804319A420ED0094AD2F804311E
:104D6800D05CD2F8043101335942DBB2C9B258BF22
:104D78004B42C2F8043170474FF0FF30704700BF14
:104D8800D0090020094BD3F80021D3F804319A4206
:104D98000AD0064BD3F80001D3F80431C01A00D466
:104DA800704700F5807070470020F9E7D0090020AF
:104DB800104AD2F80031D2F804219B1A10D4FD2BE6
:104DC80011DC0C4AD2F80031D054D2F8003101334A
:104DD8005942DBB2C9B258BF4B42C2F800317047E2
:104DE80003F58073EBE7034AD2F814310133C2F8B4
:104DF80014317047E80A002070B506460D460F4A80
:104E0800D2F80031D2F804219B1A03D4FD2B04DC1C
:104E180000240EE003F58073F8E7084AD2F814314D
:104E28000133C2F81431002505E0305DFFF7C0FFFB
:104E38000134AC42F9DB284670BD00BFE80A002007
:104E4800F8B506460F460D460AE004F580740FE0F3
:104E580021463046FFF7D0FF2D1B2644002D0DDCE0
:104E68000DB3154BD3F80041D3F80431E41AECD450
:104E7800C4F1FD04A542EBDC2C46E9E72046AC4230
:104E8800A8BF2846FBF75CFFFBF736FB08A3D3E96E
:104E98000023FBF789FBFBF749FEFCF76BF90230AF
:104EA800FDF720FDDCE73846F8BD00BFAFF3008012
:104EB800ABAAAAAAAAAAF03FE80A0020F0B4444B79
:104EC8009D68C5F3C005434B1B685C6A424B1C6078
:104ED800424BD3F80C11611A18D4023119D4C910F5
:104EE8000A2905DD3D4B6FF00102C3F808210A21AC
:104EF8003A4BD3F8083113F1020F0CD0374BD3F8E3
:104F08000831B3F1FF3F49DB002025E001F580318E
:104F1800E3E70731E3E7314B93F81031002BEDD18C
:104F28002E4B4FF0FF32C3F80821D3F800210020A0
:104F38009854E3E70027294BD3F800619A5D3A4378
:104F48009A55264BD3F808210132C3F80821D3F823
:104F58000831072B13DC013081421FDD1F4BD3F8CA
:104F68000831002BEDDB1D4BD3F800619A5D520828
:104F78009A5593F81031002BDCD08027DBE7174ACD
:104F8800D2F80031D2F804219B1A0ED4FD2B0FDD84
:104F9800124AD2F814310133C2F814310F4B83F896
:104FA8001051C3F80C41F0BC704703F58073EDE76E
:104FB8000A4AD2F8003101335942DBB2C9B258BFAC
:104FC8004B42C2F800316FF00103C2F80831E5E73F
:104FD80000080140000C002018050020D00900201E
:104FE80008B5304B1B681A6912F0010F02D06FF038
:104FF80001021A612C4BD3F80021D3F804319A42EC
:1050080049D0294BD3F804219A5CD2B2D3F808319D
:10501800B3F1FF3F14D0082B1ED0234BD3F808312F
:105028001A4112F0010F30D0012204211F48FDF768
:105038008CFB1D4AD2F808310133C2F808310AE066
:10504800002204211948FDF780FB174AD2F80831DD
:105058000133C2F8083108BD012204211348FDF7C5
:1050680074FB114AD2F8043101335942DBB2C9B298
:1050780058BF4B42C2F804314FF0FF33C2F8083131
:105088000B4A136801331360E5E70022042107483F
:10509800FDF75BFBCDE7012204210448FDF755FB32
:1050A800D9E700BF400C0020E80A002000080140B2
:1050B80014050020034A1168034B196052685A60AE
:1050C800704700BF4C0000202C050020034B032232
:1050D8001A60034B00221A60704700BF20050020A9
:1050E80004000020074BD968074A1160D96818697D
:1050F800091A9160D96A5160D96A1B6BCB1AD360BF
:10510800704700BF18100020800C0020034A116867
:10511800034B196152681A63704700BF800C002066
:105128001810002005490868054B1A6802441A60DF
:1051380049685A680A445A60704700BFA40C0020A6
:105148002C00002008B50B4B198840F2D243994235
:1051580008D01A460848FFF74BFD064B40F2D242EA
:105168001A8008BD1421034801F0D4F90348FFF759
:105178003FFDF6E7E4080020A87C0008E07C000872
:1051880008B5FEF7E3FA08BD2DE9F04F95B09E4B40
:1051980000221A704138372800F2E382DFE810F065
:1051A800CC00E10213023A00E102E1027302D801E5
:1051B800E102E102E102E102E1020602CA02E102C1
:1051C800AD01E1023C00E102E102E10238007E01AA
:1051D800E102E102E102E102E102E102E102E102AF
:1051E800CC00E10213023A00E102E1027302D801A5
:1051F800E102E102E102E102E1020602CA02E10281
:10520800AD01E1023C00E102E102E10238007E0169
:10521800012303E0012391E04FF0FF337B4A12782A
:105228001AB97B490A607B490A60784A01211170E2
:10523800794A00211160794A1568012D3DD0C0F2E4
:105248009282032D00F38F8203EB83034FEA430A14
:105258006F4B1A689244C3F800A05046FBF73AF91E
:1052680000226F4BFBF7A0F904460D46694BD3F8B3
:1052780000B05846FBF72EF90022694BFBF794F96A
:105288008046894602460B4620462946FAF7D4FF4F
:1052980006460F460022634BFBF716FCE0B958A3FD
:1052A800D3E9002330463946FBF7F0FB90BB304684
:1052B8003946FBF713FC064610E0642202FB03F3B1
:1052C80059490A681A440A60486803444B605749B8
:1052D8004D4801F04FFB03E14FF47A76544B5E6082
:1052E80042464B4620462946FAF7A8FF04460D4693
:1052F80000224C4BFBF7E8FB70B941A3D3E900232C
:1053080020462946FBF7C2FBA0B920462946FBF7F1
:10531800E5FB03E0474EE1E74FF47A70444B186031
:10532800019600905B4652464349374801F022FBFC
:105338000125D5E03F48F1E74FF0FF33334A1278B3
:105348001AB933490A6033490A60304A0121117099
:10535800314A00211160314A1568012D3FD0C0F251
:105368000482032D00F3018203EB83034FEA430A0F
:10537800284B1A689244C3F800A0254BD3F800B014
:105388005846FBF7A7F80022254BFBF70DF9044612
:105398000D465046FBF79EF80022214BFBF704F917
:1053A8008046894602460B4620462946FAF744FFBE
:1053B80006460F4600221B4BFBF786FB00283DD113
:1053C8000FA3D3E9002330463946FBF75FFB0028DB
:1053D80052D130463946FBF781FB064630E0124889
:1053E8000168642202FB0312026044686FF06301E3
:1053F80001FB034343600D49034801F0BBFA6FE02A
:105408000000000000408FC0B40D0020F40400200C
:105418002805002034050020040000202005002075
:105428000000E03F00408F402C000020F07C000886
:105438004C00002018FCFFFF107D00084FF47A761E
:10544800A14B5E6042464B4620462946FAF7F6FED7
:1054580004460D4600229D4BFBF736FB70B998A316
:10546800D3E9002320462946FBF710FBA0B92046C4
:105478002946FBF733FB03E0954EE1E74FF47A70DA
:10548800914B18600196009053465A4691499248AC
:1054980001F070FA012523E08D48F1E700238F4AD7
:1054A80013608F4A1360884A536013608D4A5363B0
:1054B80053618D494B600B608C494B600B60D06821
:1054C8008B490860D26A4A608A4A1370824A8A4BBA
:1054D80003CB1060516019889B7811819372012564
:1054E8007D4C2046FAF79CFE844B1B6801462046FB
:1054F8009847284615B0BDE8F08F0023804A13600E
:10550800764A1360764A13606F4A53601360754A8F
:105518005363536174494B600B6074494B600B6073
:10552800D06873490860D26A4A60764A1360714A43
:105538001370694D744C0FCC28606960AA60EB60E9
:1055480007CC28616961AA612388AB830125C7E775
:1055580064490A68CB684C684D698E69CF696B48A5
:10556800D0F82CC0D1F820E0D1F82C80D1F82490C4
:10557800D1F834A0D1F838B0C96BC06D0B900A913E
:10558800CDF824B0CDF820A0CDF81C90CDF8188027
:10559800CDF814E0CDF810C0039702960195009459
:1055A8005B494D4801F0E6F9012599E74A4D594C08
:1055B8000FCC28606960AA60EB6007CC286169613C
:1055C800AA6100258CE7544C60685449FBF70CFC31
:1055D800834625682669A768A069FAF78DFF002227
:1055E8003A4BFAF7E1FFCDE90C01206AFAF784FF9C
:1055F8000022364BFAF7D8FFCDE90E01D4F8248003
:10560800D4F82890206BFAF777FF00222F4BFAF78F
:10561800CBFFCDE91001A06BFAF76EFF00222B4BF0
:10562800FAF7C2FFCDE91201D4F83CA0246C584621
:10563800FBF7A0FD83460994CDF820A0DDE912010F
:10564800FBF74CFA0790DDE91001FBF747FA0690E3
:10565800CDF81490CDF81080DDE90E01FBF73EFA85
:105668000390DDE90C01FBF739FA02900197304607
:10567800FBF780FD00902B465A462949164801F051
:1056880079F901252CE727488268274B9B68274929
:105698008C6801F580618D6801F580618E6881688C
:1056A8008068C0F300300490C1F340010391029672
:1056B800019500941E49084801F05CF901250FE79F
:1056C8000000000000408FC04C00002000408F40C8
:1056D80018FCFFFF107D0008B40D002028050020ED
:1056E8003405002018100020D0040020DC0400201D
:1056F8002C000020F4040020487D000880020020CF
:105708002405002020050020547D0008B80F002043
:10571800747D0008E47D00081409002000007A4424
:10572800007E000800080140000C01400010014004
:105738006C7E00080E4D2C687820FFF725FD621C52
:10574800534202F0030203F0030358BF5A422A608F
:10575800084B53F822300849084801F00BF9012595
:10576800BEE60025BCE60125BAE60125B8E600BF7D
:105778002005002070000020A87E0008B40D00203D
:1057880010B5441C0022134604E021785B1ADBB2F2
:105798000132013441789142F7DC4A1E0244937089
:1057A800024B1B680231984710BD00BF80020020E1
:1057B80000B583B0044B1B6802A840F8043DFFF70E
:1057C800DFFF03B05DF804FBE87B000800B583B099
:1057D800044B5B6802A840F8043DFFF7D1FF03B013
:1057E8005DF804FBE87B000800B583B06B46054A0A
:1057F80092E8030083E803001846FFF7C1FF03B0EF
:105808005DF804FBF07B00082DE9F04186B0044602
:10581800A14B00221A7001E00134013922780AB93B
:105828000029F9DC002900F0DE80A2F13F03352BC6
:1058380000F2B883DFE813F03600B603DA00B603E7
:105848000401B6030B015E015E0265026C02B60339
:10585800B603B603B6031503B6031C03B603B603B3
:10586800B6037303B603B603B603B603B603B603AB
:10587800B603B603B603B603B603B603DA00B60337
:105888000401B6030B015E015E0265026C02B603F9
:10589800B603B603B6031503B6031C03B603B60373
:1058A800B60373037C4C58227C49204601F01AF851
:1058B8002046FAF7B5FC7A4D2B68014620469847F2
:1058C8006D227849204601F00DF82046FAF7A8FC29
:1058D8002B68014620469847A2227349204601F0CA
:1058E80001F82046FAF79CFC2B68014620469847A9
:1058F80050226E49204600F0F5FF2046FAF790FC4A
:105908002B68014620469847694E06F12007354620
:105918000FCD20606160A260E3602E461034BD4266
:10592800F5D12A88AB782280A3705B4C2046FAF721
:1059380077FC5B4D2B68014620469847C1225D499C
:10594800204600F0CFFF2046FAF76AFC2B68014694
:1059580020469847002410E04F4D0092564A40F2E6
:10596800FF11284600F0D2FF2846FAF759FC4C4BA5
:105978001B6801462846984701340F2C0FD84F4B17
:1059880003EB4413D3F80520002AF5D04B4B03EB67
:105998004413D3F80130002BDED1494BDCE73E4CF1
:1059A800484D0FCD20606160A260E3602046FAF7A1
:1059B80037FC3B4B1B680146204698470023237061
:1059C800354C2046FAF72CFC3F4D2B680146204603
:1059D80098473E4B1B8823802046FAF721FC2B680A
:1059E80001462046984706B0BDE8F081002303939E
:1059F8000493059301291ADC039A22B1059B13B974
:105A08004FF47A730593324B1A70049B31490B702B
:105A18000599314C84FB0104C817C0EB64002F4C76
:105A2800206000912E491C4800F0A4FFC8E705AB90
:105A3800009304AB03AA2B49601C00F0BBFFDBE713
:105A48006320FFF7A1FB144B00221A70B8E7012965
:105A580012D0637843F02003732B13D0637843F09C
:105A68002003632B14D0204B1B68204A126820495E
:105A7800094800F07FFFA3E700231C4A13601A4A75
:105A88001360F0E70123184A1360184A1360E5E72A
:105A9800164B01221A60E6E7B40D0020C47E000808
:105AA800840200201C7F00088C7F000830800008DA
:105AB80080800008A4800008688100088000002019
:105AC800BC83000878810008800200207C820008DE
